:020000040800F2
:1000000000000320F12E0008E52D0008EB2D00086C
:10001000F12D0008F72D0008FD2D0008000000005C
:10002000000000000000000000000000C1070108FF
:10003000032E000800000000110A0108790A0108D7
:10004000412F0008412F0008412F0008412F0008D0
:10005000412F0008412F0008412F0008412F0008C0
:10006000412F0008412F0008412F0008412F0008B0
:10007000412F0008412F0008412F0008412F0008A0
:10008000412F0008412F0008412F0008412F000890
:10009000412F0008412F0008412F0008412F000880
:1000A000412F0008412F0008412F0008412F000870
:1000B000412F0008412F0008412F0008412F000860
:1000C000412F0008412F0008412F0008412F000850
:1000D000412F0008412F0008412F0008412F000840
:1000E000412F0008412F0008412F0008412F000830
:1000F000412F0008412F0008412F0008412F000820
:10010000412F0008412F0008412F0008412F00080F
:10011000412F0008412F0008112E0008412F000830
:10012000412F0008412F0008412F0008412F0008EF
:10013000412F0008412F0008412F0008412F0008DF
:10014000412F0008412F0008412F0008412F0008CF
:10015000412F0008412F0008412F0008412F0008BF
:10016000412F0008412F0008412F0008412F0008AF
:10017000412F0008252E0008412F00080000000034
:10018000412F0008412F0008412F0008412F00088F
:10019000412F0008412F0008412F0008412F00087F
:0C01A000392E0008412F00084D2E0008E9
:1001B00010B5054C237833B9044B13B10448AFF3A1
:1001C00000800123237010BD5C01002000000000AE
:1001D000742D010808B5034B1BB103490348AFF365
:1001E000008008BD0000000060010020742D01089F
:1001F00001F0FF01102A2BDB10F0070F08D010F8D8
:10020000013B013A8B422DD010F0070F42B3F6D1DB
:10021000F0B441EA012141EA014122F007047FF0F4
:1002200000070023F0E80256083C85EA010586EA4B
:10023000010685FA47F5A3FA87F586FA47F6A5FA87
:1002400087F68EB9EED1F0BC01F0FF0102F0070293
:1002500032B110F8013B013A83EA010313B1F8D13E
:100260000020704701387047002D06BF354603381F
:10027000073815F0010F07D1013015F4807F02BF58
:10028000013015F4C03F0130F0BC0138704700BFA9
:1002900081F0004102E000BF83F0004330B54FEA37
:1002A00041044FEA430594EA050F08BF90EA020FA4
:1002B0001FBF54EA000C55EA020C7FEA645C7FEA37
:1002C000655C00F0E2804FEA5454D4EB5555B8BF5A
:1002D0006D420CDD2C4480EA020281EA030382EACB
:1002E000000083EA010180EA020281EA0303362D5D
:1002F00088BF30BD11F0004F4FEA01314FF4801C30
:100300004CEA113102D0404261EB410113F0004F41
:100310004FEA03334CEA133302D0524263EB4303F8
:1003200094EA050F00F0A780A4F10104D5F1200E96
:100330000DDB02FA0EFC22FA05F2801841F10001F1
:1003400003FA0EF2801843FA05F359410EE0A5F1C5
:1003500020050EF1200E012A03FA0EFC28BF4CF0F6
:10036000020C43FA05F3C01851EBE37101F00045AC
:1003700007D54FF0000EDCF1000C7EEB00006EEBB9
:100380000101B1F5801F1BD3B1F5001F0CD3490843
:100390005FEA30004FEA3C0C04F101044FEA44529A
:1003A00012F5800F80F09A80BCF1004F08BF5FEA21
:1003B000500C50F1000041EB045141EA050130BD01
:1003C0005FEA4C0C404141EB0101013C28BFB1F513
:1003D000801FE9D291F0000F04BF01460020B1FA5E
:1003E00081F308BF2033A3F10B03B3F120020CDA31
:1003F0000C3208DD02F1140CC2F10C0201FA0CF00F
:1004000021FA02F10CE002F11402D8BFC2F1200C73
:1004100001FA02F120FA0CFCDCBF41EA0C01904029
:10042000E41AA2BF01EB0451294330BD6FEA040472
:100430001F3C1CDA0C340EDC04F11404C4F120025D
:1004400020FA04F001FA02F340EA030021FA04F36F
:1004500045EA030130BDC4F10C04C4F1200220FAC6
:1004600002F001FA04F340EA0300294630BD21FA04
:1004700004F0294630BD94F0000F83F4801306BFCA
:1004800081F480110134013D4EE77FEA645C18BFBE
:100490007FEA655C29D094EA050F08BF90EA020F55
:1004A00005D054EA000C04BF1946104630BD91EA4D
:1004B000030F1EBF0021002030BD5FEA545C05D150
:1004C0004000494128BF41F0004130BD14F580048F
:1004D0003CBF01F5801130BD01F0004545F0FE4103
:1004E00041F470014FF0000030BD7FEA645C1ABF38
:1004F000194610467FEA655C1CBF0B46024650EA6F
:10050000013406BF52EA033591EA030F41F400219A
:1005100030BD00BF90F0000F04BF0021704730B520
:100520004FF4806404F132044FF000054FF00001F5
:1005300050E700BF90F0000F04BF0021704730B5B6
:100540004FF4806404F1320410F0004548BF40428B
:100550004FF000013EE700BF42004FEAE2014FEAE0
:1005600031014FEA02701FBF12F07F4393F07F4FBB
:1005700081F06051704732F07F4208BF704793F0BE
:100580007F4F04BF41F40021704730B54FF46074D1
:1005900001F0004521F000411CE700BF50EA0102D4
:1005A00008BF704730B54FF000050AE050EA01027D
:1005B00008BF704730B511F0004502D5404261EBED
:1005C00041014FF4806404F132045FEA915C3FF42E
:1005D000D8AE4FF003025FEADC0C18BF03325FEACB
:1005E000DC0C18BF033202EBDC02C2F1200300FA7C
:1005F00003FC20FA02F001FA03FE40EA0E0021FAA1
:1006000002F11444BDE600BF70B54FF0FF0C4CF48E
:10061000E06C1CEA11541DBF1CEA135594EA0C0F40
:1006200095EA0C0F00F0DEF82C4481EA030621EA7B
:100630004C5123EA4C5350EA013518BF52EA0335B6
:1006400041F4801143F4801338D0A0FB02CE4FF068
:100650000005E1FB02E506F00042E0FB03E54FF098
:100660000006E1FB03569CF0000F18BF4EF0010E90
:10067000A4F1FF04B6F5007F64F5407404D25FEA8C
:100680004E0E6D4146EB060642EAC62141EA55513F
:100690004FEAC52040EA5E504FEACE2EB4F1FD0C81
:1006A00088BFBCF5E06F1ED8BEF1004F08BF5FEAFF
:1006B000500E50F1000041EB045170BD06F00046B1
:1006C00046EA010140EA020081EA0301B4EB5C045E
:1006D000C2BFD4EB0C0541EA045170BD41F4801156
:1006E0004FF0000E013C00F3AB8014F1360FDEBF7B
:1006F000002001F0004170BDC4F10004203C35DA57
:100700000C341BDC04F11404C4F1200500FA05F3D9
:1007100020FA04F001FA05F240EA020001F000427A
:1007200021F0004110EBD37021FA04F642EB0601F0
:100730005EEA430E08BF20EAD37070BDC4F10C041A
:10074000C4F1200500FA04F320FA05F001FA04F2DE
:1007500040EA020001F0004110EBD37041F10001CA
:100760005EEA430E08BF20EAD37070BDC4F12005D5
:1007700000FA05F24EEA020E20FA04F301FA05F23D
:1007800043EA020321FA04F001F0004121FA04F2E5
:1007900020EA020000EBD3705EEA430E08BF20EAB5
:1007A000D37070BD94F0000F0FD101F000464000EF
:1007B00041EB010111F4801F08BF013CF7D041EA71
:1007C000060195F0000F18BF704703F00046520075
:1007D00043EB030313F4801F08BF013DF7D043EA46
:1007E0000603704794EA0C0F0CEA135518BF95EAFC
:1007F0000C0F0CD050EA410618BF52EA4306D1D183
:1008000081EA030101F000414FF0000070BD50EAA1
:10081000410606BF1046194652EA430619D094EA2B
:100820000C0F02D150EA013613D195EA0C0F05D115
:1008300052EA03361CBF104619460AD181EA030169
:1008400001F0004141F0FE4141F470014FF0000021
:1008500070BD41F0FE4141F4780170BD70B54FF0BC
:10086000FF0C4CF4E06C1CEA11541DBF1CEA13553C
:1008700094EA0C0F95EA0C0F00F0A7F8A4EB05041E
:1008800081EA030E52EA03354FEA013100F0888015
:100890004FEA03334FF0805545EA131343EA1263DE
:1008A0004FEA022245EA111545EA10654FEA002693
:1008B0000EF000419D4208BF964244F1FD0404F54C
:1008C000407402D25B084FEA3202B61A65EB0305A8
:1008D0005B084FEA32024FF480104FF4002CB6EB65
:1008E000020E75EB030E22BFB61A754640EA0C00E5
:1008F0005B084FEA3202B6EB020E75EB030E22BF25
:10090000B61A754640EA5C005B084FEA3202B6EB65
:10091000020E75EB030E22BFB61A754640EA9C0024
:100920005B084FEA3202B6EB020E75EB030E22BFF4
:10093000B61A754640EADC0055EA060E18D04FEAB2
:10094000051545EA16754FEA06164FEAC30343EA52
:1009500052734FEAC2025FEA1C1CC0D111F4801F1F
:100960000BD141EA00014FF000004FF0004CB6E718
:1009700011F4801F04BF01430020B4F1FD0C88BFB7
:10098000BCF5E06F3FF6AFAEB5EB030C04BFB6EBC2
:10099000020C5FEA500C50F1000041EB045170BDB5
:1009A0000EF0004E4EEA113114EB5C04C2BFD4EBE2
:1009B0000C0541EA045170BD41F480114FF0000E66
:1009C000013C90E645EA060E8DE60CEA135594EAE2
:1009D0000C0F08BF95EA0C0F3FF43BAF94EA0C0FE5
:1009E0000AD150EA01347FF434AF95EA0C0F7FF45A
:1009F00025AF104619462CE795EA0C0F06D152EAAE
:100A000003353FF4FDAE1046194622E750EA410691
:100A100018BF52EA43067FF4C5AE50EA41047FF4A2
:100A20000DAF52EA43057FF4EBAE12E74FF0FF3C07
:100A300006E000BF4FF0010C02E000BF4FF0010CD8
:100A40004DF804CD4FEA410C7FEA6C5C4FEA430C51
:100A500018BF7FEA6C5C1BD001B050EA410C0CBFA0
:100A600052EA430C91EA030F02BF90EA020F002002
:100A7000704710F1000F91EA030F58BF994208BF69
:100A800090422CBFD8176FEAE37040F00100704726
:100A90004FEA410C7FEA6C5C02D150EA013C07D17D
:100AA0004FEA430C7FEA6C5CD6D152EA033CD3D0C8
:100AB0005DF8040B704700BF8446104662468C46C2
:100AC0001946634600E000BF01B5FFF7B7FF0028F5
:100AD00048BF10F1000F01BD4DF808EDFFF7F4FF1E
:100AE0000CBF012000205DF808FB00BF4DF808EDA9
:100AF000FFF7EAFF34BF012000205DF808FB00BFCC
:100B00004DF808EDFFF7E0FF94BF012000205DF8ED
:100B100008FB00BF4DF808EDFFF7CEFF94BF0120A2
:100B200000205DF808FB00BF4DF808EDFFF7C4FF9B
:100B300034BF012000205DF808FB00BF4FEA410CE4
:100B40007FEA6C5C02D150EA013C0AD14FEA430CC7
:100B50007FEA6C5C02D152EA033C02D14FF0000004
:100B600070474FF0010070474FEA410212F5001242
:100B700015D211D56FF47873B3EB625212D94FEAE4
:100B8000C12343F0004343EA505311F0004F23FACE
:100B900002F018BF404270474FF00000704750EA23
:100BA000013005D111F0004008BF6FF000407047E0
:100BB0004FF00000704700BF53B94AB9002908BF81
:100BC00000281CBF4FF0FF314FF0FF3000F074B928
:100BD000ADF1080C6DE904CE00F006F8DDF804E094
:100BE000DDE9022304B070472DE9F047089D044673
:100BF0008E46002B4DD18A42944669D9B2FA82F2D0
:100C000052B101FA02F3C2F1200120FA01F10CFA0B
:100C100002FC41EA030E94404FEA1C48210CBEFB43
:100C2000F8F61FFA8CF708FB16E341EA034306FBCC
:100C300007F199420AD91CEB030306F1FF3080F05B
:100C40001F81994240F21C81023E63445B1AA4B2A8
:100C5000B3FBF8F008FB103344EA034400FB07F74A
:100C6000A7420AD91CEB040400F1FF3380F00A818B
:100C7000A74240F207816444023840EA0640E41B80
:100C800000261DB1D4400023C5E900433146BDE82C
:100C9000F0878B4209D9002D00F0EF800026C5E9CE
:100CA000000130463146BDE8F087B3FA83F6002EE6
:100CB0004AD18B4202D3824200F2F980841A61EB5E
:100CC000030301209E46002DE0D0C5E9004EDDE77C
:100CD00002B9FFDEB2FA82F2002A40F09280A1EB64
:100CE0000C014FEA1C471FFA8CFE0126200CB1FBB9
:100CF000F7F307FB131140EA01410EFB03F08842B2
:100D000008D91CEB010103F1FF3802D2884200F23E
:100D1000CB804346091AA4B2B1FBF7F007FB1011D0
:100D200044EA01440EFB00FEA64508D91CEB04046E
:100D300000F1FF3102D2A64500F2BB800846A4EBC9
:100D40000E0440EA03409CE7C6F12007B34022FAB4
:100D500007FC4CEA030C20FA07F401FA06F31C43E3
:100D6000F9404FEA1C4900FA06F3B1FBF9F8200CF0
:100D70001FFA8CFE09FB181140EA014108FB0EF036
:100D8000884202FA06F20BD91CEB010108F1FF3A86
:100D900080F08880884240F28580A8F10208614492
:100DA000091AA4B2B1FBF9F009FB101144EA0141A0
:100DB00000FB0EFE8E4508D91CEB010100F1FF344B
:100DC0006CD28E456AD90238614440EA0840A0FBE3
:100DD0000294A1EB0E01A142C846A64656D353D0B9
:100DE0005DB1B3EB080261EB0E0101FA07F722FADD
:100DF00006F3F1401F43C5E9007100263146BDE806
:100E0000F087C2F12003D8400CFA02FC21FA03F368
:100E1000914001434FEA1C471FFA8CFEB3FBF7F0E9
:100E200007FB10360B0C43EA064300FB0EF69E420E
:100E300004FA02F408D91CEB030300F1FF382FD2A7
:100E40009E422DD9023863449B1B89B2B3FBF7F64F
:100E500007FB163341EA034106FB0EF38B4208D928
:100E60001CEB010106F1FF3816D28B4214D9023E69
:100E70006144C91A46EA004638E72E46284605E787
:100E80000646E3E61846F8E64B45A9D2B9EB020858
:100E900064EB0C0E0138A3E74646EAE7204694E7E8
:100EA0004046D1E7D0467BE7023B614432E730461B
:100EB00009E76444023842E7704700BF80B400AFDE
:100EC00000BFBD465DF8047B704780B483B000AFBF
:100ED0007860396000BF0C37BD465DF8047B704711
:100EE00080B400AF00BFBD465DF8047B70470000D2
:100EF00080B485B000AFF860B9607A60FB68074ADB
:100F00001A60BB68064A1A607B6880221A6000BFBC
:100F10001437BD465DF8047B704700BF78010020A0
:100F2000D001002080B485B000AF03463960FB716A
:100F30004FF49633FB60FB79012B03D14FF0504304
:100F4000BB600BE0FB79022B0ED10A4BBB6005E0C6
:100F5000BB683A681A60BB680433BB60FB685A1E02
:100F6000FA60002BF4D100E000BF1437BD465DF8F5
:100F7000047B7047000010D080B5A0B000AF002304
:100F8000BB602C4B1B6C2B4A43F080531364294BE2
:100F90001B6C03F08053BB60BB6800237B60264B57
:100FA0001B68254A43F440431360234B1B6803F43A
:100FB00040437B607B680123FB634FF480333B64D9
:100FC00002237B654FF48003BB650823FB654FF468
:100FD000B4733B6602237B660723BB6607F13C03C1
:100FE000184607F0CDFB07F07BFB0F23FB660223BF
:100FF0003B6700237B674FF4A053BB674FF48053DC
:10100000FB6707F16C030521184607F031FE082342
:10101000FB60C023FB6104237B624FF400333B631E
:1010200007F10C03184608F075F800BF8037BD467D
:1010300080BD00BF003802400070004080B500AFA6
:10104000064B074A1A60054804F060F90346002B76
:1010500001D000F04FFB00BF80BD00BFD0030020D7
:101060000030024080B500AF154B164A1A60144B91
:1010700000225A60124B00229A60114B0022DA6063
:101080000F4B00229A620E4B0022DA620C4B0022B8
:101090001A630B4B00225A63094804F01BFB0346FA
:1010A000002B01D000F026FB0121054804F080FD53
:1010B0000346002B01D000F01DFB00BF80BD00BF28
:1010C000D803002000B0024080B500AF1B4B1C4A83
:1010D0001A601A4B1B4A5A60184B00229A60174B31
:1010E0000022DA60154B4FF480421A61134B002244
:1010F0005A61124B00229A61104B0022DA610F4BA9
:1011000000221A620D4806F08FFD0346002B01D025
:1011100000F0F0FA0021094806F0D4FE0346002B47
:1011200001D000F0E7FA0021044806F007FF03466B
:10113000002B01D000F0DEFA00BF80BD18040020B3
:10114000005C0040A086010080B58EB000AF3B1D62
:1011500034220021184610F05DFA394B394A1A60E2
:10116000374B00225A60364B00229A60344B0022E3
:10117000DA60334B00221A61314B09225A61304B3D
:1011800001229A612E4B1D22DA612D4B03221A6235
:101190002B4B40F20D125A62294B40F243129A62D5
:1011A000274B40F21712DA62254B40F247121A63BE
:1011B000234B002283F83420214B002283F8352072
:1011C0001F4B002283F836201D4806F0F7FE034629
:1011D000002B01D000F08EFA00237B60F023BB606F
:1011E0000023FB604FF4A0733B6102237B61FF236C
:1011F000BB610023FB614FF4C0633B6207237B624A
:101200004FF05043BB62F023FB624FF4A0733B638B
:10121000002387F83430002387F83530002387F81F
:1012200036303B1D00221946054807F059F80346A1
:10123000002B01D000F05EFA00BF3837BD4680BDFC
:101240006C0400200068014080B500AF174B184ABD
:101250001A60164B4FF482725A60144B00229A6047
:10126000124B0022DA60114B00221A610F4B002250
:101270005A610E4B4FF400729A610C4B1822DA61DE
:101280000A4B00221A62094B00225A62074B0022C5
:101290009A62064B0A22DA62044808F00CFA034606
:1012A000002B01D000F026FA00BF80BD24050020ED
:1012B0000050014080B586B000AF07F1080300225E
:1012C0001A605A609A60DA603B4600221A605A60DF
:1012D0001E4B1F4A1A601D4B00225A601B4B0022F6
:1012E0009A601A4B4FF6FF72DA60184B00221A61AF
:1012F000164B00225A61154B00229A61134808F0E0
:10130000B9FF0346002B01D000F0F4F94FF48053ED
:10131000BB6007F1080319460C4809F073F903464E
:10132000002B01D000F0E6F900233B6000237B6036
:101330003B461946054809F08FFB0346002B01D0B8
:1013400000F0D8F900BF1837BD4680BD7C050020ED
:101350000000014080B500AF114B124A1A60104BDB
:101360004FF4E1325A600E4B00229A600C4B00227F
:10137000DA600B4B00221A61094B0C225A61084BB0
:1013800000229A61064B0022DA61054809F0F4FB5D
:101390000346002B01D000F0ADF900BF80BD00BFB7
:1013A000C40500200050004080B500AF114B124A28
:1013B0001A60104B4FF4E1325A600E4B00229A60D3
:1013C0000C4B0022DA600B4B00221A61094B0C22F5
:1013D0005A61084B00229A61064B0022DA610548E7
:1013E00009F0CAFB0346002B01D000F083F900BFCF
:1013F00080BD00BF080600200010014080B588B005
:1014000000AF3B1D00221A605A609A60DA601A61D0
:101410005A619A611F4B204A1A601E4B01225A6082
:101420001C4B00229A601B4B0422DA60194B1022DD
:101430001A61184B40225A61164B4FF4C0729A61E0
:10144000144B0022DA61134B4FF400621A62114B05
:1014500000225A620F4B4FF400529A6202237B60C3
:101460000723BB600423FB6007233B6103237B61ED
:101470000223BB610223FB613B1D1946054808F0AE
:1014800089F80346002B01D000F034F900BF203763
:10149000BD4680BD4C060020400100A080B58EB046
:1014A00000AF07F1240300221A605A609A60DA60E4
:1014B0001A6100233B627B4B1B6B7A4A43F00403A7
:1014C0001363784B1B6B03F004033B623B6A0023FE
:1014D000FB61744B1B6B734A43F020031363714B26
:1014E0001B6B03F02003FB61FB690023BB616D4BA9
:1014F0001B6B6C4A43F0800313636A4B1B6B03F056
:101500008003BB61BB6900237B61664B1B6B654A33
:1015100043F001031363634B1B6B03F001037B6117
:101520007B6900233B615F4B1B6B5E4A43F0020308
:1015300013635C4B1B6B03F002033B613B690023AD
:10154000FB60584B1B6B574A43F040031363554BEA
:101550001B6B03F04003FB60FB680023BB60514B37
:101560001B6B504A43F0100313634E4B1B6B03F08D
:101570001003BB60BB6800237B604A4B1B6B494A6E
:1015800043F008031363474B1B6B03F008037B60B6
:101590007B6800221621444804F008FF00228021C5
:1015A000424804F003FF00224FF44051404804F049
:1015B000FDFE00224FF4C0413E4804F0F7FE162322
:1015C0007B620123BB620023FB6200233B6307F1C4
:1015D00024031946344804F019FC48F207037B62DF
:1015E0004FF49013BB620023FB6207F124031946FA
:1015F0002E4804F00BFC80237B620123BB62002396
:10160000FB6200233B6307F124031946274804F0DB
:10161000FDFB20237B624FF49013BB620023FB622F
:1016200007F124031946204804F0F0FB04237B62F1
:101630000023BB620023FB6207F1240319461E4806
:1016400004F0E4FB4FF400637B620023BB620023E1
:10165000FB6207F124031946154804F0D7FB4FF449
:1016600040537B620123BB620023FB6200233B6388
:1016700007F1240319460E4804F0C8FB4FF4C04399
:101680007B620123BB620023FB6200233B6307F103
:1016900024031946074804F0B9FB00BF3837BD469C
:1016A00080BD00BF00380240000802400000024038
:1016B000000C0240001802400004024080B582B0D5
:1016C00000AF78600FF056FC01200DF0E1F8FBE769
:1016D00080B582B000AF78607B681B68044A934293
:1016E00001D103F0EDFC00BF0837BD4680BD00BF4F
:1016F0000010004080B400AF72B600BFFEE780B5B6
:1017000082B000AF01F078FF0346FB71FB79002B3C
:101710000BD14FF07F410120FFF704FC4FF0504107
:10172000002001F0EBFFFB7900E0012318460837A9
:10173000BD4680BD80B582B000AF01F093FE034688
:10174000FB71FB79002B01D1FB7900E001231846E6
:101750000837BD4680BD000080B582B000AF094BA0
:10176000094A1A60074807F095FE0346FB71FB79AA
:10177000002B01D1FB7900E0012318460837BD4654
:1017800080BD00BF140500200008065080B500AFE2
:10179000064802F049F84FF07F4002F02BF84FF076
:1017A000FF2002F00FF800BF80BD00BFB400002092
:1017B00080B584B000AF786039603A687B68D31A2E
:1017C0000133FB600023BB6007F10803194608489A
:1017D00007F08AFEBB68FA68B3FBF2F2F96801FB16
:1017E00002F29A1A7B68134418461037BD4680BD32
:1017F0001405002080B586B000AF0A233B82002389
:101800007B610023FB740FE03B1D184601F0E0FEF6
:10181000D7ED027AFDEEE77A17EE902A7B69134442
:101820007B61FB7C0133FB74FB7C9BB23A8A9A425E
:10183000EAD83B8A7A6992FBF3F318461837BD461B
:1018400080BD000000000000B0B582B000AF78603D
:1018500039607B681B881A463B681B88D31A7A68F4
:10186000128811463A6812888A1A03FB02F27B68D2
:101870005B8819463B685B88CB1A796849880846BB
:1018800039684988411A01FB03F313441846FEF7EF
:1018900051FE02460B4643EC102B10F093FB55EC27
:1018A000104B7B681B791846FEF744FE0AA3D3E968
:1018B0000023FEF7A9FE02460B4620462946FFF705
:1018C00015F90346002B01D0012300E00023184640
:1018D0000837BD46B0BD00BFCD3B7F669EA0F63F3A
:1018E00080B584B000AF3B1D83E80700BB88F98852
:1018F0003A7A92B2184602F0B3F800BF1037BD46EC
:1019000080BD90B585B000AF3C4684E80F003B88B1
:101910007988BA88184602F0CBF900BF1437BD4663
:1019200090BD80B489B000AF786039604FF050430B
:10193000BB613B681B79FB75FB7D03F00103002B4A
:1019400056D1FB7D5B08FB753B681A88FB7D9BB21B
:10195000D31ABB823B685A88FB7D9BB2D31A7B8229
:101960003B681A88FB7D9BB213443B823B685A88D4
:10197000FB7D9BB21344FB81BB8AF02B3AD87B8A58
:10198000B3F5A07F36D83B8AF02B33D8FB89B3F56B
:10199000A07F2FD87B8AFB8325E0BB8ABB831BE01B
:1019A000FB8B002B06D1BB8B9B00BA6913447A6872
:1019B0001A600EE0FB8B013B1A4613461B019B1A73
:1019C0001B011A46BB8B13449B00BA6913447A6807
:1019D0001A60BB8B0133BB83BA8B3B8A9A42DFD937
:1019E000FB8B0133FB83FA8BFB899A42D5D902E04A
:1019F00000BF00E000BF2437BD465DF8047B7047A0
:101A000080B582B000AF10200FF0E6FD03467B608A
:101A1000DC211420FFF7CCFE03469AB27B681A80C3
:101A2000D221AA20FFF7C4FE03469AB27B685A80EF
:101A30007B6807229A8002210120FFF7B9FE034646
:101A40001846FEF767FD02460B4643EC112B9FED4F
:101A5000180B10F047FA53EC102B10461946FFF7FD
:101A600083F803461AB27B68DA8002210120FFF76F
:101A70009FFE03461846FEF74DFD02460B4643EC1B
:101A8000112B9FED0B0B10F02DFA53EC102B104681
:101A90001946FFF769F803461AB27B681A817B681A
:101AA000054ADA607B6818460837BD4680BD00BF2E
:101AB000000000000000F0BF0319000880B582B0EC
:101AC00000AF10200FF088FD03467B60E1210A2063
:101AD000FFF76EFE03469AB27B681A80A0211E2093
:101AE000FFF766FE03469AB27B685A807B68142231
:101AF0001A717B6801225A717B68054A9A607B687B
:101B0000044ADA607B6818460837BD4680BD00BFCE
:101B1000231900084918000880B582B000AF0C20D6
:101B20000FF05AFD03467B607B6850221A807B6869
:101B30004FF496725A807B6850221A717B68034A70
:101B40009A607B6818460837BD4680BDE1180008DA
:101B500080B582B000AF78604FF07F4001F04AFE60
:101B60004FF0FF2001F02EFE1F4801F05DFE012323
:101B70001E4A9621002001F0B5FE6FF0FF0001F033
:101B800021FE1B4801F050FE01231A4AC821002003
:101B900001F0A8FE0121184804F0F0FB0346002BD9
:101BA000F8D04FF07F410120FFF7BCF94FF05041D2
:101BB000002001F0A3FD114B1B6818460EF010F831
:101BC0000F4B1B6818460EF00BF80E4B1B6818469F
:101BD0000EF006F80C4B1B6818460EF001F80120B9
:101BE0000DF006FFD6E700BFBC0000209C2D0108C9
:101BF000C4000020A82D0108000002409C0600201F
:101C0000A0060020A4060020AC06002080B584B009
:101C100000AF78600023FB60244B1B6807F10801CC
:101C20004FF0FF3218460DF0ABFA4FF07F4001F055
:101C3000C9FDBB6893E80700FFF752FE4FF0FF2095
:101C400001F0C0FDFFF7D6FD0346194A82FB0312DF
:101C5000D211DB17D31AFB60FB6813F1640F0ADAA9
:101C6000BB681B88052B17D9BB681A88BB68023A6A
:101C700092B21A8010E0FB68642B0DDDBB681B88F4
:101C80001A46BB681B791344EA2B05DCBB681A882B
:101C9000BB68023292B21A80BB6893E80700FFF774
:101CA0001FFE05200DF0A4FEBFE700BF8406002044
:101CB0001F85EB5180B586B000AF78605A4B1B682A
:101CC00018460DF0C9FE0023FB60584B1B6807F156
:101CD0000C014FF0FF3218460DF052FA544B1B68BE
:101CE00007F114014FF0FF3218460DF049FA514B3D
:101CF0001B6807F110014FF0FF3218460DF040FA53
:101D00004FF07F4001F05EFD7B690FCBFFF7F9FDDF
:101D10004FF0FF2001F056FD7B6919887B69B3F90C
:101D200006309AB27B690A4492B21A807B6959885C
:101D30007B69B3F908309AB27B690A4492B25A803F
:101D40007B691B881A467B699B88D31A002B08DCA9
:101D50007B69B3F906309BB25B429AB27B6912B2DF
:101D6000DA807B691B881A467B699B881344EF2BBA
:101D700008DD7B69B3F906309BB25B429AB27B699E
:101D800012B2DA807B695B881A467B699B88D31A1A
:101D9000192B08DC7B69B3F908309BB25B429AB21D
:101DA0007B6912B21A817B695B881A467B699B88C2
:101DB00013443A695288934219D17B691A883B6966
:101DC0001B889A4213D97B691B881A463B691B887A
:101DD00019463B691B790B449A4208DA7B69B3F9CF
:101DE00008309BB25B429AB27B6912B21A817B695E
:101DF0005B88B3F5967F0FD94FF4AF700DF0F8FD07
:101E00007B6918460FF0F0FBFFF7FAFD03467B6194
:101E1000FB681A68013A1A607B690FCBFFF771FD06
:101E20000A200DF0E5FD6BE79806002090060020E3
:101E3000880600208406002090B59FB000AF78602F
:101E4000002387F87730474B1B6807F15C014FF0A0
:101E5000FF3218460DF094F9434B1B6807F1580107
:101E60004FF0FF3218460DF08BF90023BB665BE0A4
:101E7000BB6E002B0DD1FFF721FE0246BB6E1B018E
:101E800078333B44703B1C4613460FCB84E80F006D
:101E900047E0002387F86F303FE0FFF70FFE024670
:101EA000BB6E1B0178333B44703B1C4613460FCB83
:101EB00084E80F0007F108033B67002387F86E30C2
:101EC00027E0BB6E1B0178333B44643B1B6807F182
:101ED0000801BA6E12010A44396F1046984703464A
:101EE000002B03D0012387F86E3012E0BB6E013B5C
:101EF00007F108021B0113443A6F9A4203D03B6F6B
:101F000010333B6705E0012387F86E30012387F823
:101F10006F3097F86E30002BD3D097F86F30002BCE
:101F2000BBD0BB6E0133BB66BB6E042BA0DD0023B0
:101F30007B6610E07B6E1B0178333B44683B1B687B
:101F400007F108017A6E12010A44114607489847C2
:101F50007B6E01337B667B6E042BEBDD00233B66DF
:101F600067E100BF88060020940600200000FFFF04
:101F7000002387F877303B6E1B0178333B446B3B83
:101F80001B78002B00F04A81FB6D1B8819463B6EC5
:101F90001B0178333B44703B1B881A463B6E1B0188
:101FA00078333B446C3B1B785B08DBB2D31AFA6D89
:101FB00092889B1A9942C0F28C80FB6D1B8819464F
:101FC0003B6E1B0178333B44703B1B881A463B6ECB
:101FD0001B0178333B446C3B1B785B08DBB213443A
:101FE000FA6D92881344994273DCFB6D5B88194645
:101FF0003B6E1B0178333B446E3B1B881A463B6E9D
:102000001B0178333B446C3B1B785B08DBB2D31A73
:10201000FA6D92889B1A994221D13B6E1B0178334D
:102020003B44683B1B6807F108013A6E12010A4401
:1020300011464FF07F4098473B6E1B0178333B447D
:102040006B3B00221A70FB6DB3F908309BB25B4208
:102050009AB2FB6D12B21A81012387F87730FB6DBB
:102060005B8819463B6E1B0178333B446E3B1B88F3
:102070001A463B6E1B0178333B446C3B1B785B0874
:10208000DBB21344FA6D92881344994221D13B6E1E
:102090001B0178333B44683B1B6807F108013A6E2B
:1020A00012010A4411464FF07F4098473B6E1B01D6
:1020B00078333B446B3B00221A70FB6DB3F9083058
:1020C0009BB25B429AB2FB6D12B21A81012387F870
:1020D0007730FB6D5B8819463B6E1B0178333B44C0
:1020E0006E3B1B881A463B6E1B0178333B446C3BAE
:1020F0001B785B08DBB2D31AFA6D92889B1A99425F
:10210000C0F28C80FB6D5B8819463B6E1B017833F7
:102110003B446E3B1B881A463B6E1B0178333B44A5
:102120006C3B1B785B08DBB21344FA6D9288134456
:10213000994273DCFB6D1B8819463B6E1B0178339B
:102140003B44703B1B881A463B6E1B0178333B4473
:102150006C3B1B785B08DBB2D31AFA6D92889B1A32
:10216000994221D13B6E1B0178333B44683B1B688D
:1021700007F108013A6E12010A4411464FF07F4000
:1021800098473B6E1B0178333B446B3B00221A702F
:10219000FB6DB3F906309BB25B429AB2FB6D12B293
:1021A000DA80012387F87730FB6D1B8819463B6E78
:1021B0001B0178333B44703B1B881A463B6E1B0166
:1021C00078333B446C3B1B785B08DBB21344FA6DFD
:1021D00092881344994221D13B6E1B0178333B44D2
:1021E000683B1B6807F108013A6E12010A44114668
:1021F0004FF07F4098473B6E1B0178333B446B3B6D
:1022000000221A70FB6DB3F906309BB25B429AB2A2
:10221000FB6D12B2DA80012387F8773097F87730B8
:10222000002B03D0BB6D1A68013A1A603B6E013374
:102230003B663B6E042B7FF79BAE01200DF0D8FB75
:102240008CE600BF90B595B002AF786002F04CFF0D
:10225000034687F84730002387F84630002387F885
:102260004530404B1B6807F13C014FF0FF321846E8
:102270000CF086FF3C4B1B6807F140014FF0FF322A
:1022800018460CF07DFF384B186807F14001002319
:102290004FF0FF320CF0DAFD3B6C1B68002B0CD0CA
:1022A000FB6B1B68002B08D002F01EFF024697F85C
:1022B0004730D31A2D4A934205D92D4B1B68184637
:1022C0000DF08EFC49E002F00FFF024697F8473010
:1022D000D31A284AA2FB03239B0BDBB2C3F10403EE
:1022E00087F8463002F000FF024697F84730D21ACE
:1022F000204BA3FB02139B0B4EF6602101FB03F363
:10230000D31A1D4AA2FB03239B09DBB2C3F13C0392
:1023100087F84530194801F087FA4FF07F4001F007
:1023200069FA4FF0FF2001F04DFAFB6B19683B6C26
:102330001C6897F8463097F8452007F1080001928D
:10234000009323460A460E490FF05CFA07F1080293
:1023500001230A21002001F0C5FA01200DF048FBFD
:102360009AE700BF9006002094060020DF93040047
:10237000A806002073B2E745D34D6210AC000020E0
:10238000C02D010880B584B000AF7860214B1B6878
:1023900018460DF061FB204B1B6818460DF05CFBE6
:1023A0001E4B1B6818460DF057FB1D4B1B6818464B
:1023B0000DF052FB1B4B1B6818460DF04DFB1A4BE2
:1023C0001B6807F10C014FF0FF3218460CF0D8FEE5
:1023D0004FF07F410120FEF7A5FD144801F024FADB
:1023E000FB681B68002B0AD16FF0FF0001F0EAF9CF
:1023F00001230F4A9621002001F074FA08E00D48ED
:1024000001F0E0F901230C4A9621002001F06AFA5C
:10241000FEE700BFA00600209C060020A4060020C6
:1024200098060020AC06002094060020BC00002086
:10243000E42D01080000FFFFF02D0108B0B58EB0BB
:1024400002AF02F01BFEFFF767FB0346FB62FFF7DC
:10245000D7FA0346BB6204200FF0BEF803467B6246
:1024600004200FF0B9F803463B627B6A03221A602E
:102470003B6A05221A60FEF77FFDFFF70FF8FEF7B3
:10248000DDFDFEF7EFFDFEF7B9FFFEF71DFEFEF7DF
:102490005BFEFEF7D9FEFEF70DFFFEF785FFFEF7A8
:1024A00059FFFFF72CF90346002B05D04FF480416C
:1024B0008B4803F094FF11E1FFF73CF90346002B32
:1024C00005D04FF48041864803F089FF06E1FFF70D
:1024D00043F90346002B05D04FF48041804803F0B8
:1024E0007EFFFBE0FFF752F90022042102200CF0EE
:1024F00053FC03467B4A13600022042102200CF0A7
:102500004BFC0346784A13600022042102200CF0A1
:1025100043FC0346754A13600022042102200CF09C
:102520003BFC0346724A13600022042102200CF097
:1025300033FC03466F4A13606A4B1B686E491846AA
:102540000DF08EF8684B1B686C4918460DF088F842
:10255000664B1B686A4918460DF082F8644B1B688D
:10256000684918460DF07CF8624B1B6864491846B0
:102570000DF076F8644B019302230093002364224C
:10258000624963480DF0F3F8624B01930223009314
:1025900000236422604961480DF0E9F8604B019323
:1025A0000123009300234FF47A725E495E480DF0D8
:1025B000DEF85E4B01930123009300234FF4FA628F
:1025C0005B495C480DF0D3F85B4B0193012300930A
:1025D00000234FF4FA62594959480DF0C8F8594B95
:1025E00001930123009300234FF47A725649574810
:1025F0000DF0BDF8504B1B6818460DF02DFA4B4BF3
:102600001B6818460DF028FA4E4B1B6818460DF053
:1026100023FA3D4B1B6818460DF01EFA404B1B6811
:1026200018460DF019FA324B186807F124010023FF
:102630004FF0FF320CF00AFC2D4B186807F1240113
:1026400000234FF0FF320CF001FC2A4B186807F111
:10265000200100234FF0FF320CF0F8FB254B1868E7
:1026600007F1200100234FF0FF320CF0EFFB1D4B70
:10267000186807F12C0100234FF0FF320CF0E6FB45
:10268000184B186807F12C0100234FF0FF320CF0B3
:10269000DDFB154B186807F1280100234FF0FF32CE
:1026A0000CF0D4FB104B186807F1280100234FF001
:1026B000FF320CF0CBFB264B3C1D1D460FCD0FC44B
:1026C00095E8070084E807003B1D002118460CF040
:1026D00093F803461F4A13600DF0E0FAFEE700BFCF
:1026E0000018024084060020880600208C06002086
:1026F0009006002094060020FC2D0108082E0108F9
:10270000142E0108242E0108A8060020302E0108EE
:1027100085230008980600203C2E0108511B000864
:10272000AC060020482E0108452200089C06002027
:10273000582E0108B51C0008A0060020642E0108D0
:102740000D1C0008A4060020702E0108391E000888
:10275000842E01088006002080B582B000AF0023DF
:102760007B60124B5B6C114A43F4804353640F4B04
:102770005B6C03F480437B607B6800233B600B4B06
:102780001B6C0A4A43F080531364084B1B6C03F024
:1027900080533B603B6800220F216FF0010002F084
:1027A0008BFD00BF0837BD4680BD00BF003802402A
:1027B00080B584B000AF78607B681B680E4A934296
:1027C00015D10023FB600D4B1B6B0C4A43F4000337
:1027D00013630A4B1B6B03F40003FB60FB680022CE
:1027E00005215A2002F068FD5A2002F081FD00BF49
:1027F0001037BD4680BD00BF00B002400038024027
:1028000080B59AB000AF786007F1540300221A60D7
:102810005A609A60DA601A6107F1240330220021BD
:1028200018460EF0F7FE7B681B68854A934240F01D
:10283000028108237B6232237B630223FB63002334
:10284000BB6407F12403184606F064FC0346002B22
:1028500001D0FEF74FFF00233B627A4B5B6C794A55
:1028600043F080635364774B5B6C03F080633B629F
:102870003B6A0023FB61734B1B6B724A43F02003DE
:102880001363704B1B6B03F02003FB61FB69002398
:10289000BB616C4B1B6B6B4A43F001031363694BC9
:1028A0001B6B03F00103BB61BB6900237B61654BBC
:1028B0001B6B644A43F002031363624B1B6B03F010
:1028C00002037B617B6900233B615E4B1B6B5D4AAE
:1028D00043F0400313635B4B1B6B03F040033B610E
:1028E0003B690023FB60574B1B6B564A43F00403C4
:1028F0001363544B1B6B03F00403FB60FB68002362
:10290000BB60504B1B6B4F4A43F0080313634D4BA6
:102910001B6B03F00803BB60BB684FF480637B65EF
:102920000223BB650023FB6500233B660E237B6609
:1029300007F154031946444803F068FA41F6580376
:102940007B650223BB650023FB6500233B660E23EA
:102950007B6607F1540319463C4803F057FA0323FA
:102960007B650223BB650023FB6500233B660923CF
:102970007B6607F154031946354803F047FA4FF4D4
:1029800070637B650223BB650023FB6500233B6608
:102990000E237B6607F1540319462D4803F036FADF
:1029A0004FF40C637B650223BB650023FB650023AA
:1029B0003B660E237B6607F154031946254803F056
:1029C00025FA4FF498637B650223BB650023FB6502
:1029D00000233B660E237B6607F1540319461E480D
:1029E00003F014FA48237B650223BB650023FB65D3
:1029F00000233B660E237B6607F1540319461748F4
:102A000003F004FA4FF4A0537B650223BB65002357
:102A1000FB6500233B6609237B6607F154031946D7
:102A20000C4803F0F3F900220521582002F044FC81
:102A3000582002F05DFC00BF6837BD4680BD00BF76
:102A400000680140003802400014024000000240CB
:102A5000000402400018024000080240000C02403E
:102A600080B485B000AF78607B681B680B4A9342E6
:102A70000DD10023FB600A4B5B6B094A43F0400316
:102A80005363074B5B6B03F04003FB60FB6800BFC5
:102A90001437BD465DF8047B704700BF0008065040
:102AA0000038024080B58AB000AF786007F11403A7
:102AB00000221A605A609A60DA601A617B681B68AB
:102AC000194A93422CD100233B61184B5B6C174A87
:102AD00043F480135364154B5B6C03F480133B6128
:102AE0003B690023FB60114B1B6B104A43F0200332
:102AF00013630E4B1B6B03F02003FB60FB684FF46A
:102B000060737B610223BB610023FB6100233B6296
:102B100005237B6207F114031946054803F076F993
:102B200000BF2837BD4680BD00500140003802403C
:102B30000014024080B582B000AF78607B681B68EB
:102B4000084A93420AD1084B5B6C074A23F480136E
:102B500053644FF46071054803F004FB00BF08376D
:102B6000BD4680BD005001400038024000140240C4
:102B700080B485B000AF78607B681B680B4A9342D5
:102B80000DD10023FB600A4B5B6C094A43F0010343
:102B90005364074B5B6C03F00103FB60FB6800BFF1
:102BA0001437BD465DF8047B704700BF000001404C
:102BB0000038024080B586B000AF3B1D00221A608D
:102BC0005A609A60DA601A613B4B1B68002B6FD128
:102BD000394B01221A6000233B60384B9B6B374A0C
:102BE00043F001039363354B9B6B03F001033B60A0
:102BF0003B684FF63F037B600223BB600023FB6012
:102C000003233B610C237B613B1D19462C4803F0D9
:102C1000FDF801237B600223BB600023FB600323DC
:102C20003B610C237B613B1D1946264803F0EEF8FF
:102C300048F233137B600223BB600023FB60032355
:102C40003B610C237B613B1D19461F4803F0DEF8F6
:102C50004FF683737B600223BB600023FB6003237A
:102C60003B610C237B613B1D1946184803F0CEF8ED
:102C70004CF203737B600223BB600023FB600323E1
:102C80003B610C237B613B1D1946114803F0BEF8E4
:102C900060237B600223BB600023FB6003233B6156
:102CA0000C237B613B1D19460A4803F0AFF800E096
:102CB00000BF1837BD4680BDB00600200038024076
:102CC00000140240000802400018024000100240B8
:102CD000000C02400004024080B582B000AF786072
:102CE000FFF768FF00BF0837BD4680BD80B58EB0D6
:102CF00000AF78600023FB620023BB620023FB600F
:102D0000334B1B6C324A43F010031364304B1B6C83
:102D100003F01003FB60FB6807F1100207F11403D6
:102D20001146184606F0C4F93B6AFB62FB6A002BA9
:102D300003D106F095F9786304E006F091F90346B3
:102D40005B007B637B6B234AA2FB03239B0C013B51
:102D5000BB62214B214A1A601F4B40F2E732DA6016
:102D60001D4ABB6A53601C4B00221A611A4B002299
:102D70009A60194B00229A61174807F07BFA0346C4
:102D800087F8333097F83330002B1BD1124807F007
:102D9000C1FA034687F8333097F83330002B11D14E
:102DA000362002F0A5FA7B680F2B08D8002279683C
:102DB000362002F081FA0A4A7B68136002E00123A0
:102DC00087F8333097F8333018463837BD4680BD22
:102DD0000038024083DE1B43B40600200010004090
:102DE000CC00002080B400AFFEE780B400AFFEE767
:102DF00080B400AFFEE780B400AFFEE780B400AF60
:102E0000FEE780B400AF00BFBD465DF8047B7047AD
:102E100080B500AF024807F0EDFA00BF80BD00BFEB
:102E2000B406002080B500AF024803F05DFD00BF8E
:102E300080BD00BFD88E002080B500AF024805F0ED
:102E40008DF900BF80BD00BF6C04002080B500AFCD
:102E5000024802F09CFD00BF80BD00BFD8030020E7
:102E600080B586B000AF7860144A154BD31A7B61E9
:102E70007B693B61134B1B68002B02D1114B124A3B
:102E80001A60104B1A687B6813443A699A4207D259
:102E90000EF078FB03460C221A604FF0FF3309E076
:102EA000084B1B68FB60074B1A687B681344054A94
:102EB0001360FB6818461837BD4680BD000003202C
:102EC00000040000FC060020F091002080B400AF58
:102ED000064BD3F88830054A43F47003C2F88830B3
:102EE00000BFBD465DF8047B704700BF00ED00E009
:102EF000DFF834D00D480E490E4A002302E0D458C2
:102F0000C4500433C4188C42F9D30B4A0B4C002331
:102F100001E013600432A242FBD3FFF7D7FF0EF0AB
:102F200037FBFFF78BFA70470000032000000020FA
:102F30005C010020805D01085C010020EC91002014
:102F4000FEE7000080B500AF194807F054F80346CB
:102F5000002B2BD1164B174A1A60154B1822DA6139
:102F6000134B00229A60124B00225A61104B002230
:102F70001A610F4B00229A620D4B0722DA620C4B4A
:102F80000022DA600A4B00221A62094B4FF40072E9
:102F90009A61074B00225A62054B4FF482725A60C5
:102FA000034800F073F8024806F085FB00BF80BDBF
:102FB000000700200050014080B584B000AF0346F8
:102FC000FB710023FB73FB799AB2094B1B6807F175
:102FD0000801084806F05CFD0346FB73FB7B002BF1
:102FE00001D000F047F8BB6818461037BD4680BDD9
:102FF000040000200007002080B584B000AF034625
:10300000FB800023FB73094B1B68B91D0122084894
:1030100006F002FC0346FB73FB7B002B01D000F0A3
:1030200029F800BF1037BD4680BD00BF0400002056
:103030000007002080B586B002AF0346FB71002375
:10304000FB730A4B1B6807F10F02F91D0093012364
:10305000074806F02EFE0346002B01D000F00AF8C8
:10306000FB7B18461037BD4680BD00BF0400002022
:103070000007002080B500AF034806F0A5FBFFF76E
:1030800061FF00BF80BD00BF0007002080B58AB08F
:1030900000AF786000233B61174B5B6C164A43F42A
:1030A00080135364144B5B6C03F480133B613B69E6
:1030B0000023FB60104B1B6B0F4A43F0200313638C
:1030C0000D4B1B6B03F02003FB60FB684FF4607338
:1030D0007B610223BB610223FB6101233B62052369
:1030E0007B6207F114031946044802F08FFE00BF0B
:1030F0002837BD4680BD00BF0038024000140240A2
:1031000080B588B000AF364B1B78002B64D1344BB0
:1031100001221A700023BB60324B1B6B314A43F013
:10312000080313632F4B1B6B03F00803BB60BB68E2
:103130004FF40053FB6001233B6100237B610223BA
:10314000BB6107F10C031946274802F05FFE00231C
:103150007B60244B1B6B234A43F008031363214B12
:103160001B6B03F008037B607B684FF48053FB60AC
:1031700001233B6100237B610223BB6107F10C0348
:103180001946194802F042FE00233B60154B1B6BA9
:10319000144A43F004031363124B1B6B03F0040344
:1031A0003B603B680423FB6001233B6100237B61A0
:1031B0000223BB6107F10C0319460C4802F026FEFE
:1031C00000220421094803F0F1F8012204210748F4
:1031D00003F0ECF8FFF7B6FE00BF2037BD4680BD18
:1031E0005807002000380240000C0240000802404E
:1031F00080B582B000AF0346FB8001224FF400513E
:103200000A4803F0D3F800220421094803F0CEF85D
:10321000FB881846FFF7F0FE01220421044803F062
:10322000C5F800BF0837BD4680BD00BF000C024096
:103230000008024080B582B000AF0346FB71002257
:103240004FF400510A4803F0B1F800220421094864
:1032500003F0ACF8FB799BB21846FFF7CDFE0122D4
:103260000421044803F0A2F800BF0837BD4680BD22
:10327000000C02400008024080B584B000AF034655
:103280000A46FB8013467B710023FB600022042169
:10329000104803F08BF800224FF400510E4803F061
:1032A00085F8FB881846FFF7A7FE7B791846FFF7DD
:1032B00083FEF86001224FF40051074803F076F8CE
:1032C00001220421034803F071F8FB681846103707
:1032D000BD4680BD00080240000C024080B582B0AF
:1032E00000AF7860786801F00BFF00BF0837BD467B
:1032F00080BD000080B588B000AF0023BB60204BCC
:103300001B6B1F4A43F0040313631D4B1B6B03F03D
:103310000403BB60BB680223FB6001233B61002305
:103320007B610123BB6107F10C031946154802F0CC
:103330006DFD01220221134803F038F800237B6061
:103340000F4B1B6B0E4A43F0010313630C4B1B6BBB
:1033500003F001037B607B680623FB6000233B6175
:103360000223BB6100237B6107F10C031946064869
:1033700002F04CFDFFF7E6FD00BF2037BD4680BDE3
:1033800000380240000802400000024080B582B0D0
:1033900000AF78600B46FB7013463B803B88012BE7
:1033A00003D9FB7843F04003FB70002202210F4851
:1033B00002F0FCFFFB781846FFF73CFE0AE07B6852
:1033C0001B781846FFF736FE3B88013B3B807B6845
:1033D00001337B603B88002BF1D10122022103489D
:1033E00002F0E4FF00BF0837BD4680BD0008024080
:1033F00080B582B000AF78600B46FB7013463B800F
:103400003B88012B04D9FB7863F03F03FB7003E09A
:10341000FB7863F07F03FB7000220221104802F06A
:10342000C5FFFB781846FFF705FE0CE00020FFF70C
:1034300001FE03461A467B681A703B88013B3B80BD
:103440007B6801337B603B88002BEFD10122022196
:10345000034802F0ABFF00BF0837BD4680BD00BF88
:103460000008024080B584B000AF0123FB73002345
:10347000BB8100233B7000237B70524B9B689847B5
:103480000346D42B05D04F4B9B6898470346D52B5A
:1034900046D14D4B4B4A1A6008233B7100237B7188
:1034A0000723BB713023FB7100233B7200237B7227
:1034B0001023BB723A797B791343DAB2BB79134399
:1034C000DAB2FB791343DBB2BB813A7A7B7A1343DE
:1034D000DAB2BB7A1343DBB29BB21B029AB2BB894E
:1034E0001343BB81384B1B681B68BA891046984749
:1034F00000233B7000237B703A787B781343DBB268
:10350000BB81314B1B689B6ABA89D2B2104698477F
:103510002D4B1B68DB6A102098470023FB734BE0A0
:103520002A4B9B6898470346D32B45D1264B274A05
:103530001A6008233B7100237B710723BB71302382
:10354000FB7100233B7200237B721023BB723A791C
:103550007B791343DAB2BB791343DAB2FB791343B5
:10356000DBB2BB813A7A7B7A1343DAB2BB7A13437C
:10357000DBB29BB21B029AB2BB891343BB81124BD5
:103580001B681B68BA891046984700233B700023CC
:103590007B703A787B781343DBB2BB810A4B1B68A4
:1035A0009B6ABA89D2B210469847074B1B68DB6A00
:1035B000102098470023FB73FB7B18461037BD464D
:1035C00080BD00BF780000205C0700200C000020B8
:1035D00080B582B000AF7860064B1B681B6B002B78
:1035E00004D0044B1B681B6B7868984700BF0837F2
:1035F000BD4680BD5C07002080B500AF2D4B2E4A34
:103600001A602C4B09225A612A4B01229A61294BDC
:103610001D22DA61274B03221A62264B40F20D125B
:103620005A62244B40F243129A62224B40F2171224
:10363000DA62204B40F247121A631E4B002283F8D5
:1036400036201C4B002283F834201A4B002283F8CA
:1036500035201A4B08221A60184BC0221A61174BEA
:1036600004229A61154B4FF400325A62134805F058
:1036700051FD104B00225A600E4B00229A600D4BF8
:103680000022DA600B4B00221A6100F0B1FB0948FE
:1036900004F094FC0A4B0B4A1A60094B1B681B6828
:1036A000984700F093FD084800F0BEF80023184644
:1036B00080BD00BF6007002000680140480800206E
:1036C0009408002040000020BC00002080B500AF1E
:1036D000034B1B689B6A98470346184680BD00BF92
:1036E0009408002080B500AF034B1B68DB6A984745
:1036F0000346184680BD00BF9408002080B590B0F6
:1037000000AF03463960FB800023FB60FFF7DEFF5C
:1037100003463B6100237B61FFF7E4FF0346BB6187
:103720000023FB613B683B63FF233B6200237B621A
:10373000002387F83C30002387F83D30002387F8CA
:103740003E304FF4C063BB620723FB62FFF7BEFF4E
:1037500003467B63FFF7C6FF0346BB63FA8807F1A6
:103760000C031946144804F0BBFDFA8813491346AC
:103770005B0013449B000B4404334FF0FF321A608C
:10378000FA880E4913465B0013449B000B44083330
:103790000B4A1A60FA88094913465B0013449B00E0
:1037A0000B444FF07F421A60034804F0D7FD00BF7E
:1037B0004037BD4680BD00BF600700207C08002068
:1037C000BC00002080B483B000AF7860074B1A685B
:1037D000074913465B0013449B000B447A681A6048
:1037E00000BF0C37BD465DF8047B704778080020A9
:1037F0007C08002080B483B000AF7860084B1A6862
:10380000084913465B0013449B000B4404337A6859
:103810001A6000BF0C37BD465DF8047B704700BFDF
:10382000780800207C08002080B483B000AF786066
:10383000084B1A68084913465B0013449B000B446D
:1038400008337A681A6000BF0C37BD465DF8047B08
:10385000704700BF780800207C08002090B583B036
:1038600000AF0346FB800B46BB801346FB701B4B2F
:103870001A681B4913465B0013449B000B44083332
:103880001B681968FB78A3F12000144B1A68144CCC
:1038900013465B0013449B00234408331B68DB88FA
:1038A00003FB00F00D4B1A680D4C13465B001344EC
:1038B0009B00234408331B689B880733002B00DAE6
:1038C0000733DB1000FB03F3CA18B988FB881846DE
:1038D00000F08AFB00BF0C37BD4690BD7808002081
:1038E0007C080020B0B588B000AFBA601A46034625
:1038F000FB810B46BB811346FB710123FB83002335
:10390000BB830023BB6100233B61BB687B6102E09A
:10391000BB690133BB617B695A1C7A611B78002B40
:10392000F6D1FFF7D3FE01464B4B1A684B481346BE
:103930005B0013449B00034408331B689B88B1FB66
:10394000F3F33B61FB79032B1CD0032B33DC012BFE
:1039500002D0022B19D02EE03A69BB69D11A3E4B36
:103960001A683E4813465B0013449B000344083327
:103970001B689B8801FB03F35B089AB2FB89134425
:10398000FB831BE0FB89FB8318E03A69BB69D31A10
:1039900099B2314B1A68314813465B0013449B00BF
:1039A000034408331B689B8811FB03F39AB2FB891D
:1039B0001344FB8302E0FB89FB8300BF1AE0BB6872
:1039C0001A78B989FB8B1846FFF748FF224B1A6813
:1039D000224913465B0013449B000B4408331B68C9
:1039E0009A88FB8B1344FB83BB680133BB60BB8BA2
:1039F0000133BB83BB681B78002B14BF012300235A
:103A0000DCB2FFF763FEB98B134B1A68134D1346F4
:103A10005B0013449B002B4408331B689B8801FB0D
:103A200003F3C31A99B20C4B1A680C4813465B0097
:103A300013449B00034408331B689B8899422CBFA6
:103A400001230023DBB22340DBB2002BB7D100BF40
:103A500000BF2037BD46B0BD780800207C0800209C
:103A6000B0B586B002AF0346FB800B46BB80134661
:103A70007B800023FB60164B1B68164A342101FB38
:103A800003F313445C331C68FFF720FE0246BB8837
:103A900003FB02F2FB8813449B002344FB600C4BA6
:103AA0001868F9687C880A4B1A680B4D13465B004E
:103AB00013449B002B441B680193002300930123B4
:103AC000224600F04BFB00BF1037BD46B0BD00BF23
:103AD00078080020600700207C08002090B587B09F
:103AE00000AF0346FB800B46BB8013467B807B8880
:103AF0005B00C3F103037B6100233B617B88FB60B8
:103B0000C7E03B699AB2FB88134498B2FB689BB24A
:103B1000BA88D31A99B2644B1A68644C13465B0096
:103B200013449B0023441B681A4600F037FA3B6994
:103B30009BB2FA88D31A98B2FB689BB2BA88D31AA0
:103B400099B2594B1A68594C13465B0013449B00B9
:103B500023441B681A4600F021FAFB689AB2FB88DE
:103B6000134498B23B699BB2BA88D31A99B24E4BB0
:103B70001A684E4C13465B0013449B0023441B6899
:103B80001A4600F00BFAFB689BB2FA88D31A98B277
:103B90003B699BB2BA88D31A99B2434B1A68434C1B
:103BA00013465B0013449B0023441B681A4600F035
:103BB000F5F93B699AB2FB88134498B2FB689AB254
:103BC000BB88134499B2384B1A68384C13465B00D3
:103BD00013449B0023441B681A4600F0DFF93B693D
:103BE0009BB2FA88D31A98B2FB689AB2BB88134486
:103BF00099B22D4B1A682D4C13465B0013449B0061
:103C000023441B681A4600F0C9F9FB689AB2FB8886
:103C1000134498B23B699AB2BB88134499B2224BC1
:103C20001A68224C13465B0013449B0023441B6814
:103C30001A4600F0B3F9FB689BB2FA88D31A98B21F
:103C40003B699AB2BB88134499B2174B1A68174C58
:103C500013465B0013449B0023441B681A4600F084
:103C60009DF97B69002B06DA3B699A007B69134456
:103C700006337B610AE03A69FB68D31A9A007B69D4
:103C800013440A337B61FB68013BFB603B690133F2
:103C90003B613A69FB689A427FF633AF00BF00BFD1
:103CA0001C37BD4690BD00BF780800207C0800206E
:103CB00080B586B000AF0346FB800B46BB80134641
:103CC0007B807B885B00C3F103037B6100233B6146
:103CD0007B88FB60444B1A68444913465B001344DD
:103CE0009B000B441B681846FFF76CFD61E0FB6806
:103CF000002B21D0FB689BB2FA88D31A98B23B699B
:103D00009AB2BB88134499B2FB689BB25B009BB22A
:103D10001A46FFF7A5FEFB689BB2FA88D31A98B241
:103D20003B699BB2BA88D31A99B2FB689BB25B001D
:103D30009BB21A46FFF794FE3B69002B21D03B69EA
:103D40009BB2FA88D31A98B2FB689BB2BA88D31A8E
:103D500099B23B699BB25B009BB21A46FFF780FEAB
:103D60003B699BB2FA88D31A98B2FB689AB2BB88B7
:103D7000134499B23B699BB25B009BB21A46FFF7B2
:103D80006FFE7B69002B06DA3B699A007B6913445E
:103D900006337B610AE03A69FB68D31A9A007B69B3
:103DA00013440A337B61FB68013BFB603B690133D1
:103DB0003B613A69FB689A4299D90B4B1A680B49E7
:103DC00013465B0013449B000B441B681846FFF727
:103DD000F9FC7A88B988FB881846FFF77FFE00BF98
:103DE0001837BD4680BD00BF780800207C08002041
:103DF00080B58EB000AF00233B62614B5B6C604AC4
:103E000043F0806353645E4B5B6C03F080633B6202
:103E10003B6A0023FB615A4B1B6B594A43F4000376
:103E20001363574B1B6B03F40003FB61FB69002317
:103E3000BB61534B1B6B524A43F001031363504B5E
:103E40001B6B03F00103BB61BB6900237B614C4B1F
:103E50001B6B4B4A43F002031363494B1B6B03F08C
:103E600002037B617B6900233B61454B1B6B444A2A
:103E700043F004031363424B1B6B03F004033B61E9
:103E80003B690023FB603E4B1B6B3D4A43F008033C
:103E900013633B4B1B6B03F00803FB60FB680023C1
:103EA000BB60374B1B6B364A43F020031363344B24
:103EB0001B6B03F02003BB60BB6800237B60304BAF
:103EC0001B6B2F4A43F0400313632D4B1B6B03F016
:103ED00040037B607B6841F658037B620223BB6230
:103EE0000023FB6202233B630E237B6307F1240361
:103EF0001946244801F08AFF4FF470637B6207F192
:103F000024031946204801F081FF4FF498637B6237
:103F100007F1240319461D4801F078FF48237B620E
:103F200007F1240319461A4801F070FF4FF480632B
:103F30007B6207F124031946164801F067FF4FF42E
:103F40000C637B6207F124031946134801F05EFFFE
:103F500003237B6209237B6307F1240319460A4884
:103F600001F054FF4FF4A0537B6207F1240319467C
:103F7000094801F04BFF00BF3837BD4680BD00BF88
:103F800000380240000002400004024000080240E5
:103F9000000C02400014024000180240B0B582B08C
:103FA00000AF03463A60FB800B46BB800C4B1B689E
:103FB0000C4A342101FB03F313445C331C68BD88B5
:103FC000FFF784FB034603FB05F2FB8813449B00C9
:103FD00023441A463B68136000BF0837BD46B0BD96
:103FE000780800206007002080B588B000AF034645
:103FF0003A60FB800B46BB800023FB610023BB6162
:1040000000237B61534B1A68534913465B001344EA
:104010009B000B4408331B68DB887B824D4B1A687E
:104020004D4913465B0013449B000B4408331B6847
:104030009B883B823B8A0733002B00DA0733DB1077
:10404000DBB2DB00DAB23B8ADBB2D31AFB730023AC
:10405000FB6176E03B8A0733002B00DA0733DB1085
:104060001A46FB6902FB03F33A681344BB603B8AC0
:104070000733002B00DA0733DB10012B02D0022BB1
:1040800004D00CE0BB681B787B6116E0BB681B7832
:104090001B02BA680132127813437B610DE0BB68E2
:1040A0001B781A04BB6801331B781B021343BA68E0
:1040B0000232127813437B6100BF0023BB6136E0FC
:1040C0003A8ABB69D21AFB7B1344013B012202FAF4
:1040D00003F31A467B691340002B12D0BB699AB2D6
:1040E000FB88134498B21B4B1A681B4913465B00AC
:1040F00013449B000B441A68BB881946FFF74EFF18
:1041000012E0BB699AB2FB88134498B2114B1A684B
:10411000114913465B0013449B000B4404331A6897
:10412000BB881946FFF73AFFBB690133BB613B8A85
:10413000BA699A42C4D3BB880133BB80FB6901339F
:10414000FB617B8AFA699A4284D300BF00BF2037A3
:10415000BD4680BD780800207C08002080B586B070
:1041600002AFF860B9607A603B60164B4FF44032A2
:104170005A60144B00229A60124ABB69D360114BFB
:10418000114A1A600F4801F0A5FA0346002B15D119
:10419000F9680C4801F00CFD0346002B0ED1BA68FB
:1041A0003B6800937B68F969064801F0DCFA034636
:1041B000002B03D10A21034801F000FB00BF103798
:1041C000BD4680BD0808002000B0024080B500AFA9
:1041D000294B2A4A1A602A4B02221A60284B0722CE
:1041E0005A60274B04229A60254B0722DA60244B41
:1041F00002221A61224B02225A61214B02229A6149
:104200001D4B01225A601C4B00229A601A4B04225B
:10421000DA60194B10221A61174B40225A61164B73
:104220004FF4C0729A61144B0022DA61124B4FF4C2
:1042300000621A62104B00225A620F4B4FF4005278
:104240009A6200210C4800F07FF80D490A4805F0F9
:10425000A1F90346002B03D00A4B01221A7002E099
:10426000084B00221A7040F26A5000F00DF8054B1E
:104270001B78184680BD00BF98080020400100A0B0
:10428000CC0800200800002080B584B000AF786022
:104290000023FB602A4B01221A60294B08225A6036
:1042A000274B01229A60264B0022DA604FF6FF72FC
:1042B0002349244805F0A2F9012000F021FF204BFA
:1042C00002221A601E4B08225A601D4B01229A607E
:1042D0001B4B0022DA604FF6FF721949194805F0AE
:1042E0008DF9174B03221A60154B08225A60144BA4
:1042F00004229A60124B0022DA604FF6FF721049D6
:10430000104805F07BF94FF40C73FB600C4B042252
:104310001A600B4B08225A60094B01229A60FB6815
:10432000074AD3604FF6FF720549064805F066F963
:104330007968044805F097F900BF1037BD4680BD85
:10434000E80800209808002080B590B000AF7860A1
:1043500039607B68002B00F0EC800023BB62774B58
:104360009B6B764A43F001039363744B9B6B03F0A2
:104370000103BB62BB6A00237B62704B1B6B6F4AFD
:1043800043F4800313636D4B1B6B03F480037B6268
:104390007B6A00233B62694B1B6B684A43F0020354
:1043A0001363664B1B6B03F002033B623B6A002303
:1043B000FB61624B1B6B614A43F0040313635F4B69
:1043C0001B6B03F00403FB61FB690023BB615B4BC8
:1043D0001B6B5A4A43F008031363584B1B6B03F0E3
:1043E0000803BB61BB6900237B61544B1B6B534AC1
:1043F00043F010031363514B1B6B03F010037B61FD
:104400007B6900233B614D4B1B6B4C4A43F02003FF
:1044100013634A4B1B6B03F020033B613B69002392
:10442000FB60464B1B6B454A43F040031363434B11
:104430001B6B03F04003FB60FB6802233B6302231A
:10444000BB6300237B630C23FB636023FB6207F1E8
:104450002C0319463A4801F0D9FC0123FB6207F10D
:104460002C031946374801F0D1FC4CF20373FB6270
:1044700007F12C031946344801F0C8FC4FF683734A
:10448000FB6207F12C031946304801F0BFFC4FF6E0
:104490003F03FB6207F12C0319462D4801F0B6FCDF
:1044A00048F23313FB6207F12C031946294801F047
:1044B000ADFC294B00225A60274B80229A60264B84
:1044C0004FF40072DA60244B4FF480621A61224B81
:1044D0004FF480525A61204B4FF480429A611E4B38
:1044E0000022DA611C4B4FF400321A621A4B002290
:1044F0005A62194B03229A62174B0022DA62164B5A
:1045000000221A63144B154A1A607B68124A1A6318
:10451000114A7B689363104800F0CCFF0E4800F00E
:104520001BFF00220F21382000F0C6FE382000F0CB
:10453000DFFE00BF4037BD4680BD00BF00380240EF
:104540000004024000080240000C0240001002403B
:104550000014024000180240F808002010640240D5
:1045600080B584B000AF0346FB800023FB73FEF7E9
:10457000C1FEFB88DBB2FB7307F10F030122202190
:104580001846FEF703FFFB881B0A9BB2DBB2FB73E6
:1045900007F10F03012223211846FEF7F7FE00BFA3
:1045A0001037BD4680BD80B400AF00BFBD465DF88A
:1045B000047B704780B582B000AFFEF79BFEFB1D09
:1045C00001220F211846FEF713FFFB791846083722
:1045D000BD4680BD80B582B000AFFB1D0122242105
:1045E0001846FEF705FFFB7963F07F03DBB2FB7132
:1045F000FB1D012224211846FEF7C8FE00BF083724
:10460000BD4680BD80B584B000AF0346FB8000236B
:10461000FB73FB88DBB2FB7307F10F030122202140
:104620001846FEF7B3FE00BF1037BD4680BD80B50B
:1046300084B000AF0346FB800023FB730023BB73F1
:1046400007F10F03012230211846FEF7D1FE07F1D2
:104650000E03012222211846FEF7CAFEFB7B23F03F
:104660007F03DBB2FB73FB88DBB21B125AB2FB7B0E
:104670005BB213435BB2DBB2FB73BB7B23F0200363
:10468000DBB2BB73FB88DAB2BB7B1343DBB2BB7319
:1046900007F10F03012230211846FEF777FE07F1DC
:1046A0000E03012222211846FEF770FE00BF1037CC
:1046B000BD4680BD80B584B000AF0346FB7107F1F5
:1046C0000F03012222211846FEF792FEFB79002BF0
:1046D0000AD1FB7B03F07F03DBB2FB73FB7B63F050
:1046E0007F03DBB2FB730CE0FB79012B09D1FB7B71
:1046F00023F00803DBB2FB73FB7B43F00803DBB260
:10470000FB7307F10F03012222211846FEF73EFE3C
:1047100000BF1037BD4680BD80B584B000AF0346F2
:10472000FB7107F10F03012222211846FEF760FEFC
:10473000FB79002B07D1FB7B03F07F03DBB2FB731C
:10474000FB7BFB7309E0FB79012B06D1FB7B23F09C
:104750000803DBB2FB73FB7BFB7307F10F03012242
:1047600022211846FEF712FE00BF1037BD4680BD5D
:1047700080B584B000AF0346FB7107F10F0301223F
:1047800021211846FEF734FEFB7B23F03F03DBB20A
:10479000FB73FA7BFB791343DBB2FB7307F10F0367
:1047A000012221211846FEF7F1FD00BF1037BD465A
:1047B00080BD80B584B000AF0346FB7107F10F03E5
:1047C000012224211846FEF713FEFB7B23F0100381
:1047D000DBB2FB73FA7BFB791343DBB2FB7307F1AC
:1047E0000F03012224211846FEF7D0FD00BF103729
:1047F000BD4680BD80B58AB000AF78600023BB6144
:104800000023BB8307F1100300221A609A80002363
:10481000FB734FF000037B6200233B6207F10F0341
:10482000012223211846FEF7E3FD07F118030622B3
:1048300028211846FEF7DCFDFB7B03F04003002B2C
:1048400023D100233B621CE03B6A5B000133283329
:104850003B4413F8103C9BB21B029AB23B6A5B00CC
:1048600028333B4413F8103C9BB213449BB21AB25A
:104870003B6A5B0028333B4423F8182C3B6A013326
:104880003B623B6A022BDFDD22E000233B621CE03F
:104890003B6A5B0028333B4413F8103C9BB21B027D
:1048A0009AB23B6A5B00013328333B4413F8103C57
:1048B0009BB213449BB21AB23B6A5B0028333B4461
:1048C00023F8182C3B6A01333B623B6A022BDFDD85
:1048D000FB7B03F03003202B0CD0202B0DDC002BB6
:1048E00002D0102B03D008E0154B7B6205E0154B7E
:1048F0007B6202E0144B7B6200BF00233B6216E048
:104900003B6A5B0028333B4433F9183C07EE903A8E
:10491000B8EEE77A3B6A9B007A681344D7ED097AD0
:1049200067EE277AC3ED007A3B6A01333B623B6A4C
:10493000022BE5DD00BF00BF2837BD4680BD00BFAC
:1049400000000C4100008C4100008C4280B500AF9B
:10495000FEF7D6FBCA2000F05DF9C32000F067F92E
:10496000082000F064F9502000F061F9CF2000F039
:1049700051F9002000F05BF9C12000F058F9302017
:1049800000F055F9ED2000F045F9642000F04FF9F2
:10499000032000F04CF9122000F049F9812000F0CA
:1049A00046F9E82000F036F9852000F040F90020B3
:1049B00000F03DF9782000F03AF9CB2000F02AF918
:1049C000392000F034F92C2000F031F9002000F0FB
:1049D0002EF9342000F02BF9022000F028F9F720FE
:1049E00000F018F9202000F022F9EA2000F012F976
:1049F000002000F01CF9002000F019F9B12000F0AF
:104A000009F9002000F013F91B2000F010F9B6207E
:104A100000F000F90A2000F00AF9A22000F007F9DE
:104A2000C02000F0F7F8102000F001F9C12000F0DC
:104A3000F1F8102000F0FBF8C52000F0EBF845205D
:104A400000F0F5F8152000F0F2F8C72000F0E2F8C9
:104A5000902000F0ECF8362000F0DCF8C82000F0E0
:104A6000E6F8F22000F0D6F8002000F0E0F8B020E0
:104A700000F0D0F8C22000F0DAF8B62000F0CAF852
:104A80000A2000F0D4F8A72000F0D1F8272000F089
:104A9000CEF8042000F0CBF82A2000F0BBF800206C
:104AA00000F0C5F8002000F0C2F8002000F0BFF8C8
:104AB000EF2000F0BCF82B2000F0ACF8002000F054
:104AC000B6F8002000F0B3F8012000F0B0F83F2065
:104AD00000F0ADF8F62000F09DF8012000F0A7F8F6
:104AE000002000F0A4F8062000F0A1F82C2000F02F
:104AF00091F8C820FEF7F2FB262000F08BF8012089
:104B000000F095F8E02000F085F80F2000F08FF815
:104B1000292000F08CF8242000F089F80C2000F007
:104B200086F80E2000F083F8092000F080F84E206F
:104B300000F07DF8782000F07AF83C2000F077F85B
:104B4000092000F074F8132000F071F8052000F03F
:104B50006EF8172000F06BF8112000F068F80020C4
:104B600000F065F8E12000F055F8002000F05FF853
:104B7000162000F05CF81B2000F059F8042000F02B
:104B800056F8112000F053F8072000F050F83120BB
:104B900000F04DF8332000F04AF8422000F047F8CA
:104BA000052000F044F80C2000F041F80A2000F045
:104BB0003EF8282000F03BF82F2000F038F80F20B6
:104BC00000F035F8112000F025F8C820FEF786FB2C
:104BD000292000F01FF82C2000F01CF800BF80BD39
:104BE00080B500AFFEF78CFA0321D32000F02CF83B
:104BF00003469BB2184680BD80B500AF292000F067
:104C000009F800BF80BD80B500AF282000F002F891
:104C100000BF80BD80B582B000AF0346FB71FB7959
:104C20001846FEF707FB00BF0837BD4680BD80B5BC
:104C300082B000AF0346FB80FB881846FEF7D8FA27
:104C400000BF0837BD4680BD80B582B000AF0346C7
:104C50000A46FB8013467B717A79FB881146184619
:104C6000FEF70AFB034618460837BD4680BD80B4F0
:104C700000AFF0231846BD465DF8047B704780B452
:104C800000AF4FF4A0731846BD465DF8047B704733
:104C900080B584B000AF0346FB800023FB73FEF7B2
:104CA00029FBFB88DBB2FB7307F10F0301222021F4
:104CB0001846FEF76BFBFB881B0A9BB2DBB2FB734B
:104CC00007F10F03012223211846FEF75FFB00BF07
:104CD0001037BD4680BD80B400AF00BFBD465DF853
:104CE000047B704780B582B000AFFEF703FBFB1D6D
:104CF00001220F211846FEF77BFBFB791846083787
:104D0000BD4680BD80B582B000AFFB1D01222421CD
:104D10001846FEF76DFBFB7963F07F03DBB2FB7196
:104D2000FB1D012224211846FEF730FB00BF083787
:104D3000BD4680BD80B584B000AF0346FB80002334
:104D4000FB73FB88DBB2FB7307F10F030122202109
:104D50001846FEF71BFB00BF1037BD4680BD80B56F
:104D600084B000AF0346FB800023FB730023BB73BA
:104D700007F10F03012230211846FEF739FB07F136
:104D80000E03012222211846FEF732FBFB7B23F0A3
:104D90007F03DBB2FB73FB88DBB21B125AB2FB7BD7
:104DA0005BB213435BB2DBB2FB73BB7B23F020032C
:104DB000DBB2BB73FB88DAB2BB7B1343DBB2BB73E2
:104DC00007F10F03012230211846FEF7DFFA07F141
:104DD0000E03012222211846FEF7D8FA00BF103731
:104DE000BD4680BD80B584B000AF0346FB7107F1BE
:104DF0000F03012222211846FEF7FAFAFB79002B55
:104E00000AD1FB7B03F07F03DBB2FB73FB7B63F018
:104E10007F03DBB2FB730CE0FB79012B09D1FB7B39
:104E200023F00803DBB2FB73FB7B43F00803DBB228
:104E3000FB7307F10F03012222211846FEF7A6FAA1
:104E400000BF1037BD4680BD80B584B000AF0346BB
:104E5000FB7107F10F03012222211846FEF7C8FA61
:104E6000FB79002B07D1FB7B03F07F03DBB2FB73E5
:104E7000FB7BFB7309E0FB79012B06D1FB7B23F065
:104E80000803DBB2FB73FB7BFB7307F10F0301220B
:104E900022211846FEF77AFA00BF1037BD4680BDC2
:104EA00080B584B000AF0346FB7107F10F03012208
:104EB00021211846FEF79CFAFB7B23F03F03DBB26F
:104EC000FB73FA7BFB791343DBB2FB7307F10F0330
:104ED000012221211846FEF759FA00BF1037BD46BE
:104EE00080BD80B584B000AF0346FB7107F10F03AE
:104EF000012224211846FEF77BFAFB7B23F01003E6
:104F0000DBB2FB73FA7BFB791343DBB2FB7307F174
:104F10000F03012224211846FEF738FA00BF10378C
:104F2000BD4680BD80B58AB000AF78600023BB610C
:104F30000023BB8307F1100300221A609A8000232C
:104F4000FB734FF000037B6200233B6207F10F030A
:104F5000012223211846FEF74BFA07F11803062217
:104F600028211846FEF744FAFB7B03F04003002B90
:104F700023D100233B621CE03B6A5B0001332833F2
:104F80003B4413F8103C9BB21B029AB23B6A5B0095
:104F900028333B4413F8103C9BB213449BB21AB223
:104FA0003B6A5B0028333B4423F8182C3B6A0133EF
:104FB0003B623B6A022BDFDD22E000233B621CE008
:104FC0003B6A5B0028333B4413F8103C9BB21B0246
:104FD0009AB23B6A5B00013328333B4413F8103C20
:104FE0009BB213449BB21AB23B6A5B0028333B442A
:104FF00023F8182C3B6A01333B623B6A022BDFDD4E
:10500000FB7B03F03003202B0CD0202B0DDC002B7E
:1050100002D0102B03D008E0154B7B6205E0154B46
:105020007B6202E0144B7B6200BF00233B6216E010
:105030003B6A5B0028333B4433F9183C07EE903A57
:10504000B8EEE77A3B6A9B007A681344D7ED097A99
:1050500067EE277AC3ED007A3B6A01333B623B6A15
:10506000022BE5DD00BF00BF2837BD4680BD00BF75
:1050700000000C4100008C4100008C4280B500AF64
:105080000E4B1B680D4A43F4007313600B4B1B68F7
:105090000A4A43F480631360084B1B68074A43F4D1
:1050A00080731360032000F0FCF80020FDF71EFE63
:1050B000FDF752FB0023184680BD00BF003C0240B4
:1050C00080B400AF064B1B781A46064B1B6813448E
:1050D000044A136000BFBD465DF8047B704700BF03
:1050E000D00000205809002080B400AF034B1B689B
:1050F0001846BD465DF8047B704700BF5809002084
:1051000080B584B000AF7860FFF7EEFFB8607B68D1
:10511000FB60FB68B3F1FF3F05D00A4B1B781A46D2
:10512000FB681344FB6000BFFFF7DEFF0246BB686D
:10513000D31AFA689A42F7D800BF00BF1037BD46AD
:1051400080BD00BFD000002080B485B000AF786083
:105150007B6803F00703FB600C4BDB68BB60BA683D
:105160004FF6FF031340BB60FB681A02BB68134392
:1051700043F0BF6343F40033BB60044ABB68D360B1
:1051800000BF1437BD465DF8047B704700ED00E0BA
:1051900080B400AF044BDB681B0A03F0070318461A
:1051A000BD465DF8047B704700ED00E080B483B03D
:1051B00000AF0346FB7197F90730002B0BDBFB793F
:1051C00003F01F02074997F907305B09012000FA35
:1051D00002F241F8232000BF0C37BD465DF8047B86
:1051E000704700BF00E100E080B483B000AF034629
:1051F0003960FB7197F90730002B0ADB3B68DAB2A4
:105200000C4997F907301201D2B20B4483F80023FE
:105210000AE03B68DAB20849FB7903F00F03043B6C
:105220001201D2B20B441A7600BF0C37BD465DF8AE
:10523000047B704700E100E000ED00E080B489B03D
:1052400000AFF860B9607A60FB6803F00703FB61A8
:10525000FB69C3F10703042B28BF0423BB61FB696F
:105260000433062B02D9FB69033B00E000237B617A
:105270004FF0FF32BB6902FA03F3DA43BB681A400E
:105280007B699A404FF0FF317B6901FA03F3D94300
:105290007B680B40134318462437BD465DF8047BFA
:1052A000704780B582B000AF78607868FFF74CFF38
:1052B00000BF0837BD4680BD80B586B000AF03464D
:1052C000B9607A60FB7300237B61FFF761FF78614F
:1052D0007A68B9687869FFF7B1FF024697F90F302D
:1052E00011461846FFF780FF00BF1837BD4680BD46
:1052F00080B582B000AF0346FB7197F907301846BE
:10530000FFF754FF00BF0837BD4680BD80B582B0AF
:1053100000AF78607B68002B01D101230EE07B6831
:105320005B79DBB2002B05D17B6800221A717868AB
:1053300000F008F87B6801225A71002318460837EC
:10534000BD4680BD80B483B000AF786000BF0C372D
:10535000BD465DF8047B704780B586B000AF7860CD
:1053600000237B61FFF7C0FE38617B68002B01D111
:10537000012399E07B68022283F835207B680022B4
:1053800083F834207B681B681A687B681B6822F0EE
:1053900001021A600FE0FFF7A7FE02463B69D31A2D
:1053A000052B08D97B6820225A657B68032283F885
:1053B0003520032378E07B681B681B6803F001033A
:1053C000002BE8D17B681B681B687B617A69384BCE
:1053D00013407B617B685A687B689B681A437B68D3
:1053E000DB681A437B681B691A437B685B691A4355
:1053F0007B689B691A437B68DB691A437B681B6A7D
:1054000013437A6913437B617B685B6A042B07D182
:105410007B68DA6A7B681B6B13437A6913437B6191
:105420007B681B687A691A607B681B685B697B61B3
:105430007B6923F007037B617B685B6A7A691343AE
:105440007B617B685B6A042B17D17B689B6A7A69F6
:1054500013437B617B68DB6A002B0ED0786800F019
:10546000BDF80346002B08D07B6840225A657B6854
:10547000012283F83520012316E07B681B687A69D6
:105480005A61786800F074F80346FB607B68DB6D56
:105490003F229A40FB689A607B6800225A657B68CD
:1054A000012283F83520002318461837BD4680BDF9
:1054B0003F8010F080B584B000AF78607B68002B2F
:1054C00001D1012350E07B6893F83530DBB2022B29
:1054D00001D1022348E07B681B681A687B681B685F
:1054E00022F001021A607B681B6800221A607B6848
:1054F0001B6800225A607B681B6800229A607B68E8
:105500001B680022DA607B681B6800221A617B68D6
:105510001B6821225A61786800F02AF80346FB6074
:105520007B680022DA637B6800221A647B680022B1
:105530005A647B6800229A647B680022DA647B6884
:1055400000221A657B68DB6D3F229A40FB689A60F7
:105550007B6800225A657B68002283F835207B68CF
:10556000002283F83420002318461037BD4680BD42
:1055700080B485B000AF78607B681B68DBB2103BFD
:10558000144AA2FB03231B09FB60134AFB68134464
:105590001B781A467B68DA65FB68032B09D97B68A0
:1055A0001B6823F47F7323F003031A1D7B689A653D
:1055B00007E07B681B6823F47F7323F003037A689A
:1055C00093657B689B6D18461437BD465DF8047B78
:1055D000704700BFABAAAAAA005D010880B485B0DD
:1055E00000AF78600023FB737B689B6ABB607B68BD
:1055F0009B69002B1FD1BB68032B56D801A252F820
:1056000023F000BF1556000827560008155600085D
:10561000AB5600087B68DB6A03F08073002B46D032
:105620000123FB7343E07B68DB6AB3F1C07F40D1A9
:105630000123FB733DE07B689B69B3F5005F21D1DB
:10564000BB68032B37D801A252F823F05D5600083F
:10565000635600085D560008755600080123FB7369
:1056600030E07B68DB6A03F08073002B25D00123D8
:10567000FB7322E07B68DB6AB3F1C07F1FD101239B
:10568000FB731CE0BB68022B03D9BB68032B03D060
:1056900018E00123FB7315E07B68DB6A03F080737D
:1056A000002B0ED00123FB730BE000BF0AE000BF0C
:1056B00008E000BF06E000BF04E000BF02E000BF5A
:1056C00000E000BFFB7B18461437BD465DF8047B45
:1056D000704700BF80B582B000AF78607B68002B58
:1056E00001D101233BE07B6893F83930DBB2002B1A
:1056F00006D17B68002283F838207868FDF758F8D7
:105700007B68022283F839207B681B681B6823F4BE
:1057100040317B685A687B681B680A431A607B6863
:105720001B685B6B23F007017B689A687B681B68CA
:105730000A435A637B681B681B6C23F47F5323F076
:105740003F037A68D1687A6812680B4313647B68F8
:105750000022DA637B68012283F83920002318468F
:105760000837BD4680BD80B586B002AFF860B9602D
:105770007A603B60FB6893F83830012B01D102233B
:1057800018E0FB68012283F83820FB68022283F8C6
:105790003920BB6900933B687A68B968F86800F003
:1057A00099FAFB681B681A68FB681B6842F00102E3
:1057B0001A60002318461037BD4680BD80B586B0FC
:1057C00000AF786039600023FB607B681B681B6852
:1057D00003F00103002B56D0FFF786FC78614BE005
:1057E0007B681B685B68FB60FB6803F02103002B90
:1057F00023D0FB6803F02003002B05D07B68DB6B14
:1058000043F002027B68DA63FB6803F00103002BBC
:1058100005D07B68DB6B43F001027B68DA637B6851
:105820001B6821229A607B68042283F839207B68F8
:10583000002283F838200123A5E03B68B3F1FF3F45
:105840001AD0FFF751FC02467B69D31A3A689A4294
:1058500002D33B68002B0FD17B68DB6B43F0200247
:105860007B68DA637B68032283F839207B68002237
:1058700083F83820032386E07B681B685B6803F0AD
:105880000203002BACD07B681B68DB6903F02003AC
:105890003B617B681B685B6A03F020033A69134332
:1058A0003B613B69002B61D0FFF71EFC786156E03D
:1058B0007B681B685B68FB60FB6803F02903002BB7
:1058C0002ED0FB6803F00803002B05D07B68DB6B50
:1058D00043F004027B68DA63FB6803F02003002BCB
:1058E00005D07B68DB6B43F002027B68DA63FB6800
:1058F00003F00103002B05D07B68DB6B43F0010252
:105900007B68DA637B681B6829229A607B680422C3
:1059100083F839207B68002283F83820012332E0A5
:105920003B68B3F1FF3F1AD0FFF7DEFB02467B690D
:10593000D31A3A689A4202D33B68002B0FD17B6896
:10594000DB6B43F020027B68DA637B68032283F819
:1059500039207B68002283F83820032313E07B681A
:105960001B685B6803F01003002BA1D07B681B68E9
:1059700012229A607B68012283F839207B6800221A
:1059800083F83820002318461837BD4680BD80B5FF
:1059900084B000AF78607B681B685B68FB607B68E5
:1059A0001B681B68BB60FB6803F00103002B26D05B
:1059B000BB6803F48073002B21D07B681B681A68D6
:1059C0007B681B6822F480721A607B68DB6B43F093
:1059D00001027B68DA637B681B6801229A607B683E
:1059E000042283F839207B68002283F838207B6802
:1059F0005B69002B03D07B685B6978689847FB681C
:105A000003F02003002B26D0BB6803F40053002BC7
:105A100021D07B681B681A687B681B6822F40052DF
:105A20001A607B681B6820229A607B68DB6B43F0FE
:105A300002027B68DA637B68042283F839207B6882
:105A4000002283F838207B685B69002B03D07B68D9
:105A50005B6978689847FB6803F00803002B26D041
:105A6000BB6803F40063002B21D07B681B681A68B5
:105A70007B681B6822F400621A607B681B6808223E
:105A80009A607B68DB6B43F004027B68DA637B68B7
:105A9000042283F839207B68002283F838207B6851
:105AA0005B69002B03D07B685B6978689847FB686B
:105AB00003F00403002B13D0BB6803F48063002BB6
:105AC0000ED07B681B681A687B681B6822F48062B2
:105AD0001A607B681B6804229A60786800F053F8AB
